:10048300D3EF9400EE9400400F7D027CEFDCFEDDA1
:08049300FCEF1F70EB1E80E876
:01049B00223E
:100448000915000A0A0A0A0A0A0A0A0C093F065B81
:0C0458004F666D7D077F6F0040010801BA
:0904F700AE0574152FF8A60622CB
:10037300E4F580EF14B40800505490038B75F00338
:10038300A4C58325F0C583730203A30203A7020355
:10039300AB0203AF0203B30203BB0203C30203CBEB
:1003A300D2A4800ED2A48012D2A48016D2A4801A22
:1003B300C2A4D2A3D2A28016C2A4D2A3C2A2800E88
:1003C300C2A4C2A3D2A28006C2A4C2A3C2A27409B9
:0603D3002DF8E6F5802282
:1004680074152508F8E6FD7C00AF0812037305082B
:0A047800E508C3940940037508016C
:010482002257
:05050900AF32E4F53201
:01050E0022CA
:1004B300E4FF20B1010F20B0027F0220B2027F03CC
:0504C30020B3027F04DC
:0104C8002211
:1003D9008530311204B38F30E5317008E530B4014E
:1003E90003753201E531B40207E530700375320255
:1003F900E531B40307E5307003753203E531B40420
:0804090007E5307003753204B1
:0104110022C8
:0304640001330061
:1004120012051B12050F120006EF6019120523BF09
:1004220015021533120523BF09020533E53375F0B2
:10043200058485F033AF33120013E533FD7C007F72
:06044200011204F780D056
:10049C0053890F438910C28FD28E758B66758DFC74
:0704AC00D2ABD2AFC2BB22AC
:05051B00C29002049CE7
:08001300EF75F032A4F52E2276
:03001B000202E9F5
:1002E900C0E0C0F0C083C082C0D075D000C000C0DB
:0D02F90001C002C003C004C005C006C0075C
:10030600758BA4758DFF052FE52F75F0C88485F0D4
:100316002FE52FC3952E5004D2908002C290052B54
:10032600E52B7002052AD394C8E52A940040097586
:100336002A00752B001203D9052DE52D7002052C18
:10034600D3940AE52C94004009752C00752D0012F3
:02035600046839
:10035800D007D006D005D004D003D002D001D000F9
:0B036800D0D0D082D083D0F0D0E032A3
:0B04D600D288C289D2A8D2B8D2AF22CF
:06050F001204E10204D613
:0D000600E5256006E4F5257F01227F00223C
:0D04C900E5236006E4F5237F01227F002279
:03052000AF2222E5
:03052300AF2122E3
:0300030002001EDA
:10001E00C0E0C0F0C083C082C0D075D000C000C0A8
:10002E0001C002C003C004C005C006C007E51E70B3
:10003E000CFFFE1204EC7F011205158079E51E649B
:10004E000170791205008E1F8F20E4FFFE1204EC62
:10005E00AC1FAD20E41202167B447A36793B78460B
:10006E00120198501DAC1FAD20E41202167BE77AE8
:10007E009C7949784612019860084006751E020266
:10008E00017DAC1FAD20E41202167B567ACF791A91
:10009E007846120198501FAC1FAD20E41202167B59
:1000AE00F97A3579297846120198600A4008752345
:1000BE0001E4FF020177751E0102017DE51E640257
:1000CE00600302017D1205008E1F8F20E4FFFE12D9
:1000DE0004ECD3E520946CE51F9402402BE52094AC
:1000EE00A4E51F94065021E524131313541F242650
:1000FE00F8C000E6FFE5245407FEF87401088002FC
:10010E00C333D8FCF45F8033D3E52094D6E51F9437
:10011E0006402FE52094BEE51F940A5025E52413D2
:10012E001313541F2426F8C000E6FFE5245407FEDF
:10013E00F87401088002C333D8FC4FD000F60524B2
:10014E008006752400751E01E524C3942040207599
:10015E002400E527F4B52617E529F4B528118526E0
:10016E00228528217525017F01120515751E00D0E7
:10017E0007D006D005D004D003D002D001D000D0D5
:0A018E00D0D082D083D0F0D0E03250
:0B04E1005389F0438901C28DC28C22B8
:0B04EC00AD07AC068C8CAF058F8A2298
:09050000AF8CEFFEAD8AEDFF2285
:06051500EF24FF928C228E
:1001980074F8CC6480CCC86480C8F58204604FC30E
:1001A800EB9FF5F0EA9E42F0E99D42F0E89C45F0AD
:1001B800603C501DE5825FFFE582D313CB5BCBF437
:1001C8002B5582FB50280ABA002409B90020088060
:1001D8001DE5825BFBE582D313CF5FCFF4C3132FFA
:1001E8005582FF50090EBE00050DBD00010CC3EB82
:1001F8009FF5F0EA9E42F0E99D42F0E89C45F060E8
:0902080007CC4820E701B3EC2209
:1002110075F020800E75F010800575F0087D007E68
:10022100007F003392D530D50312024FEC334010DA
:10023100EF33FFEE33FEED33FDEC33FCD5F0ED2271
:0E024100E5F0247EA2D513CC92E7CDCEFF22AD
:0300000002025D9C
:0C025D00787FE4F6D8FD7581330202A41E
:0E024F00C3E49FFFE49EFEE49DFDE49CFC22C0
:10026900020412E493A3F8E493A34003F68001F295
:1002790008DFF48029E493A3F85407240CC8C33396
:10028900C4540F4420C8834004F456800146F6DF65
:10029900E4800B0102040810204080900448E47EA9
:1002A900019360BCA3FF543F30E509541FFEE4935A
:1002B900A360010ECF54C025E060A840B8E493A321
:1002C900FAE493A3F8E493A3C8C582C8CAC583CA4C
:1002D900F0A3C8C582C8CAC583CADFE9DEE780BE04
:010467000094
:00000001FF
