:02000300AD0747
:10000500E4FB7E007480A803088006CEA2E713CE29
:1000150013D8F8FFEDF582EF558224FF92B4D2B6DE
:0A002500C2B60BBB08DCD2B5C2B5B1
:01002F0022AE
:10005A00AA07AF05120003AF02A80774800880023E
:10006A00C313D8FCF4F5807F017E0012007C7580F2
:02007A00FF2263
:10003000C2B6C2B57D807C00E4FF12005A7D407CD0
:10004000007F0112005A7D207C007F0212005A7D41
:0A005000107C007F0312005A80DAD2
:10007C00D3EF9400EE9400400F7D027CEFDCFEDDAC
:08008C00FCEF1F70EB1E80E881
:010094002249
:0300000002009566
:0C009500787FE4F6D8FD7581070200308A
:00000001FF
