:1003110048656C6C6F00577269746520446F6E6537
:100321000020202020202020202020005265616410
:1003310020446F6E650020202020202020202000F6
:10000300E4F509F50A12043F7BFF7A0379117D01B8
:100013007F01120394750F05AB0AAA097D017F01C5
:100023001203F312019C8F08E508B40115050AE5D4
:100033000A70020509750F05FBAA097D017F0112EC
:1000430003F3E508B40216E50A150A7002150975EB
:100053000F05AB0AAA097D017F011203F3E50864CA
:10006300037040FCAD0AFF1203417F057E001204BA
:1000730010E509FD7C007F011203417F057E00121C
:1000830004107BFF7A0379177D017F021203947FAB
:10009300E87E031204107BFF7A0379227D017F023D
:1000A300120394E50864046003020018FF1202A817
:1000B3007509008F0A7F011202A8EFFEEE42097B49
:1000C300FF7A03792D7D017F021203947FF47E0171
:1000D3001204107BFF7A0379377D017F02120394A8
:1000E300750F05AB0AAA097D017F021203F37FE8AE
:1000F3007E031204107BFF7A0379377D017F02129E
:05010300039402001846
:10041000D3EF9400EE9400400F7D027CEFDCFEDD14
:08042000FCEF1F70EB1E80E8E9
:0104280022B1
:06045300C2A58F80D2A7B4
:080459007F027EEFDEFEDFFCF6
:010461002278
:0A047A00C2A6120453C2A7020459DF
:1003B700CFCDCFCECCCE1201477C007D0A120147AC
:0403C700ED2430FFF2
:0A03CB00D2A6120453C2A70204597F
:10042900AE07BE0104ED148006BE0209ED243F4467
:0604390080FF12047A228C
:10043F007F3812047A7F0C12047A7F0612047A7FB7
:04044F000102047A28
:0A048400AC03120429AF040203CBFD
:060394008B0B8A0C890DA1
:10039A00120429E4FDAB0BAA0CA90D8D827583000A
:0C03AA00120108FF60061203CB0D80E971
:0103B6002224
:0C02DE007F0AEA24FFFDE434FFFC7E00F0
:0802EA008E108F118C128D1390
:1002F2007F017E00E4FBEBC39513E5126480F87482
:0E0302008098500AAC10AD111201350B80E846
:0103100022CA
:0403F3008A0D8B0ED6
:1003F700120429AA0FEAD39400400D1202DEAC0DB5
:08040700AD0E1203B71A80EDDF
:01040F0022CA
:1001FD00120429C3EA64809480400B7F2B1203CB39
:10020D008A198B1A800E7F2D1203CBC3E49BF51A2E
:10021D00E49AF519AA18EAD39400400D1202DEAC47
:09022D0019AD1A1203B71A80ED95
:0102360022A5
:040237008A1D8B1E73
:10023B00120429AA1FEAD3940040297F101202E06E
:10024B00AC1DAD1ECFCDCFCECCCE120147EF540F90
:10025B00FEC3940AEE5004243080022437FF1203AD
:04026B00CB1A80D159
:01026F00226C
:040270008A228B2330
:10027400120429AA24EAD394004028EA24FFFDE4C6
:1002840034FFFC7F027E001202EAAC22AD23CFCD04
:10029400CFCECCCE120147EF54012430FF1203CB52
:0302A4001A80D2EB
:0102A7002234
:10019C00E4F50B20B1137F14FE12041030B1FD7F77
:1001AC00147E00120410750B0120B0147F147E0015
:1001BC0012041030B0FD7F147E00120410750B0277
:1001CC0020B2147F147E0012041030B2FD7F147E16
:1001DC0000120410750B0320B3147F147E0012045C
:1001EC001030B3FD7F147E00120410750B04AF0B9E
:0101FC0022E0
:060341008F0B8C0C8D0DEA
:100347001204987FA012036B120462EF7010AF0BB8
:1003570012036B120462EF7005AF0D12036B1204E8
:04036700620204A189
:0202A8008F0BBA
:1002AA001204987FA012036B120462EF7020AF0B46
:1002BA0012036B120462EF70151204987FA11203E5
:1002CA006B1204621203D58F0C7F0112048E120482
:0302DA00A1AF0CC5
:0102DD0022FE
:09049800D2A0D2A1C2A0C2A1228F
:0704A100C2A0D2A1D2A022EB
:02036B00AD07DC
:10036D00E4FB7E007480A803088006CEA2E713CEBE
:10037D0013D8F8FFEDF582EF558224FF92A0D2A19C
:06038D00C2A10BBB08DC5D
:010393002247
:1003D500E4FFD2A0FED2A130A00DA806748008804B
:0D03E50002C313D8FC4207C2A10EBE08E8F7
:0103F20022E8
:0A048E00EF24FF92A0D2A1C2A12228
:0B046200D2A0D2A1A2A0E433FFC2A1EF
:01046D00226C
:0300000002046E89
:0C046E00787FE4F6D8FD758124020003BD
:10010800BB010CE58229F582E5833AF583E02250AC
:1001180006E92582F8E622BBFE06E92582F8E222F6
:0D012800E58229F582E5833AF583E4932210
:10013500EF8DF0A4A8F0CF8CF0A428CE8DF0A42EDE
:02014500FE2298
:10014700BC000BBE0029EF8DF084FFADF022E4CC9C
:10015700F875F008EF2FFFEE33FEEC33FCEE9DEC65
:10016700984005FCEE9DFE0FD5F0E9E4CEFD22EDAB
:10017700F8F5F0EE8420D21CFEADF075F008EF2FF5
:10018700FFED33FD4007985006D5F0F222C398FDE6
:050197000FD5F0EA2283
:00000001FF
