:10015A002028083C42818185423D001E0101011E82
:10016A00000E1515150C000E1515150C001F08109C
:0B017A00100F001717000E1515150CD4
:1000E400E4F531F5321201C1E4F530E5302531FF94
:1000F400E433FE7C007D2812008F74082DF8E6FDA1
:100104007C00AF301201860530E530C3940840DB33
:100114000532E532C3940A40CFE4F5320531E531C6
:09012400942740C4E4F53180BFCA
:1001A800D3EF9400EE9400400F7D027CEFDCFEDD7F
:0801B800FCEF1F70EB1E80E854
:0101C000221C
:02012D00AD071C
:10012F00E4FB7E007480A803088006CEA2E713CEFE
:10013F0013D8F8FFEDF582EF558224FF92B4D2B6B3
:0A014F00C2B60BBB08DCD2B5C2B586
:010159002283
:0501C100C2B6C2B52228
:10018600AA07AF0512012DAF02A8077480088002E6
:10019600C313D8FCF4F5807F017E001201A8758098
:0201A600FF2236
:03000000020003F8
:0C000300787FE4F6D8FD75813202004AD7
:10008F00BC000BBE0029EF8DF084FFADF022E4CC55
:10009F00F875F008EF2FFFEE33FEEC33FCEE9DEC1E
:1000AF00984005FCEE9DFE0FD5F0E9E4CEFD22ED64
:1000BF00F8F5F0EE8420D21CFEADF075F008EF2FAE
:1000CF00FFED33FD4007985006D5F0F222C398FD9F
:0500DF000FD5F0EA223C
:10000F000200E4E493A3F8E493A34003F68001F223
:10001F0008DFF48029E493A3F85407240CC8C333F2
:10002F00C4540F4420C8834004F456800146F6DFC1
:10003F00E4800B010204081020408090015AE47EF6
:10004F00019360BCA3FF543F30E509541FFEE493B6
:10005F00A360010ECF54C025E060A840B8E493A37D
:10006F00FAE493A3F8E493A3C8C582C8CAC583CAA8
:10007F00F0A3C8C582C8CAC583CADFE9DEE780BE60
:010185000079
:00000001FF
