:10016F00D3EF9400EE9400400F7D027CEFDCFEDDB8
:08017F00FCEF1F70EB1E80E88D
:010187002255
:10009A00204A240000F88CF8F3F95BF9B8FA15FA4B
:1000AA0067FAB9FB04FB4BFB90FBCFFC10FC44FC4A
:1000BA0079FCACFCDCFD09FD34FD5CFD82FDA6FD8E
:1000CA00C8FDE8FE06FE22FE3DFE56FE6EFE85FED9
:1000DA009AFEAEFEC1FED3FEE4FEF4FF0319081A2F
:1000EA00061D061A041A061D061A041A061D061A01
:0800FA00041C061A061804FF9D
:1001030012018874082522F8E6F5230522740825D0
:1001130022F8E675F03EA4FFAEF012016F052274DB
:10012300082522F8E6B4FF03E4F522C28C7F057E9E
:080133000012016FD28C80CB99
:03000B0002013BB4
:10013B00C0E0C0D075D000C000C006E52325E02488
:10014B0024F8E6FE08E64E6012E52325E02424F8A9
:10015B00E6FE08E6F58AEEF58CB2A5D006D000D007
:04016B00D0D0E032DE
:100188005389F0438901C28DD28C758A66758CFCBF
:07019800D2A9D2AFC2B922C7
:0300000002000EED
:0C000E00787FE4F6D8FD75816D02005586
:10001A00020103E493A3F8E493A34003F68001F2F8
:10002A0008DFF48029E493A3F85407240CC8C333E7
:10003A00C4540F4420C8834004F456800146F6DFB6
:10004A00E4800B010204081020408090009AE47EAC
:10005A00019360BCA3FF543F30E509541FFEE493AB
:10006A00A360010ECF54C025E060A840B8E493A372
:10007A00FAE493A3F8E493A3C8C582C8CAC583CA9D
:10008A00F0A3C8C582C8CAC583CADFE9DEE780BE55
:0101020000FC
:00000001FF
