:1000C50075A0FE1200FE12000E8F0AE50A60F7B455
:1000D50001F4050BE50BC3940240EBE4F50B80E658
:03000B0002006F81
:0B006F00C0E0C0D075D000C000C0078A
:10007A00758A66758CFC0509E50970020508C39442
:10008A00F4E5089401402B750800750900E50B702A
:10009A000FAFA07801EF08800123D8FDF5A08012E8
:1000AA00E50BB4010DAFA07801EF08800103D8FD7C
:0200BA00F5A0AF
:0900BC00D007D000D0D0D0E03212
:1000FE005389F0438901C28DD28C758A66758CFC4A
:07010E00D2A9D2AFC2B92251
:1000E500D3EF9400EE9400400F7D027CEFDCFEDD43
:0800F500FCEF1F70EB1E80E818
:0100FD0022E0
:10000E00E4F50C20B1137F14FE1200E530B1FD7F34
:10001E00147E001200E5750C0120B0147F147E00D2
:10002E001200E530B0FD7F147E001200E5750C0263
:10003E0020B2147F147E001200E530B2FD7F147ED4
:10004E00001200E5750C0320B3147F147E0012001D
:10005E00E530B3FD7F147E001200E5750C04AF0C85
:01006E00226F
:03000000020115E5
:0C011500787FE4F6D8FD75810C0200C56F
:00000001FF
