:080578005175656E6E696500A6
:10030F001204D07BFF7A0579787D017F01120459A1
:10031F00120586E51FFB3395E0FA7518037D0A7FFA
:10032F00011203BA120514EF7006120521EF60E3F4
:10033F0012058C7522008F2312058F7520008F21D7
:10034F00AB237517027D017F0212037DAB21751759
:10035F00027D047F0212037DE521641545207002A2
:0E036F00151FE5216409452070A9051F80A512
:1004B700D3EF9400EE9400400F7D027CEFDCFEDD6D
:0804C700FCEF1F70EB1E80E842
:0104CF00220A
:0604E400C2A58F80D2A723
:0904EA00007F027EC7DEFEDFFC8C
:0104F30022E6
:0A055B00C2A61204E4C2A70204EADB
:10047C00CFCDCFCECCCE1200FC7C007D0A1200FC7E
:04048C00ED2430FF2C
:0A049000D2A61204E4C2A70204EA97
:1004D0007F3812055B7F0C12055B7F0612055B7F80
:0404E0000102055BB5
:1004F400EDBF0103148002243F4480FF12055B22F8
:10050400EFD3940040047F1880027F1C12055B2205
:0A056500AC031204F4AF040204908A
:060459008B148A158916C0
:10045F001204F4E4FDAB14AA15A9168D827583005E
:0C046F001200BDFF60061204900D80E931
:01047B00225E
:0C042B007F0AEA24FFFDE434FFFC7E00A1
:080437008E1B8F1C8C1D8D1E15
:10043F007F017E00E4FBEBC3951EE4951D500AACD3
:09044F001BAD1C1200EA0B80ED4C
:010458002281
:04049A008A268B27FC
:10049E001204F4AA28EAD39400400D12042BAC26C1
:0804AE00AD2712047C1A80ED59
:0104B6002223
:1003BA001204F4C3EA64809480400B7F2B120490E9
:1003CA008A198B1A800E7F2D120490C3E49BF51AAA
:1003DA00E49AF519AA18EAD39400400D12042BAC3A
:0903EA0019AD1A12047C1A80ED11
:0103F30022E7
:02037D008B16DD
:10037F001204F4AA17EAD39400402F7F1012042D11
:10038F00AD167C00CFCDCFCECCCE1201517C007DEF
:10039F0010120151AE05EEC3940AEE5004243080C2
:0A03AF00022437FF1204901A80CBDD
:0103B9002221
:0203F4008B2B51
:1003F6001204F4AA2CEAD394004029EA24FFFDE46F
:1004060034FFFC7F027E00120437AD2B7C00CFCD7B
:10041600CFCECCCE1201517C007D021201511204C6
:040426008C1A80D1DB
:01042A0022AF
:0B053A00D288C289D2A8D2B8D2AF226A
:0B0545005389F0438901C28DC28C2253
:0B055000AD07AC068C8CAF058F8A2233
:09056F00AF8CEFFEAD8AEDFF2216
:06058000EF24FF928C2223
:0605860012054502053AD2
:0D051400E50F6006E4F50F7F01227F002255
:0D052100E50D6006E4F50D7F01227F00224C
:03058C00AF0C228F
:03058F00AF0B228D
:0300030002019562
:10019500C0E0C0F0C083C082C0D075D000C000C030
:1001A50001C002C003C004C005C006C007E5087051
:1001B5000CFFFE1205507F011205808079E5086469
:1001C50001707912056F8E098F0AE4FFFE12055042
:1001D500AC09AD0AE41200847B447A36793B784653
:1001E500120006501DAC09AD0AE41200847BE77AC3
:1001F5009C79497846120006600840067508020297
:1002050002F4AC09AD0AE41200847B567ACF791A60
:100215007846120006501FAC09AD0AE41200847B33
:10022500F97A3579297846120006600A4008750D75
:1002350001E4FF0202EE7508010202F4E50864021A
:1002450060030202F412056F8E098F0AE4FFFE12A5
:100255000550D3E50A946CE5099402402BE50A9410
:10026500A4E50994065021E50E131313541F241019
:10027500F8C000E6FFE50E5407FEF8740108800299
:10028500C333D8FCF45F8033D3E50A94D6E50994EB
:1002950006402FE50A94BEE509940A5025E50E139C
:1002A5001313541F2410F8C000E6FFE50E5407FE93
:1002B500F87401088002C333D8FC4FD000F6050E50
:1002C5008006750E00750801E50EC3942040207563
:1002D5000E00E511F4B51017E513F4B512118510EC
:1002E5000C85120B750F017F01120580750800D072
:1002F50007D006D005D004D003D002D001D000D05D
:0A030500D0D082D083D0F0D0E032D7
:1000060074F8CC6480CCC86480C8F58204604FC3A1
:10001600EB9FF5F0EA9E42F0E99D42F0E89C45F040
:10002600603C501DE5825FFFE582D313CB5BCBF4CA
:100036002B5582FB50280ABA002409B900200880F3
:100046001DE5825BFBE582D313CF5FCFF4C3132F8D
:100056005582FF50090EBE00050DBD00010CC3EB15
:100066009FF5F0EA9E42F0E99D42F0E89C45F0607B
:0900760007CC4820E701B3EC229D
:10007F0075F020800E75F010800575F0087D007EFC
:10008F00007F003392D530D503120187EC33401037
:10009F00EF33FFEE33FEED33FDEC33FCD5F0ED2205
:0E00AF00E5F0247EA2D513CC92E7CDCEFF2241
:0300000002052EC8
:0C052E00787FE4F6D8FD75812D02030FE4
:1000BD00BB010CE58229F582E5833AF583E02250F8
:1000CD0006E92582F8E622BBFE06E92582F8E22242
:0D00DD00E58229F582E5833AF583E493225C
:1000EA00EF8DF0A4A8F0CF8CF0A428CE8DF0A42E2A
:0200FA00FE22E4
:1000FC00BC000BBE0029EF8DF084FFADF022E4CCE8
:10010C00F875F008EF2FFFEE33FEEC33FCEE9DECB0
:10011C00984005FCEE9DFE0FD5F0E9E4CEFD22EDF6
:10012C00F8F5F0EE8420D21CFEADF075F008EF2F40
:10013C00FFED33FD4007985006D5F0F222C398FD31
:05014C000FD5F0EA22CE
:10015100C2D5EC30E709B2D5E4C39DFDE49CFCEEC9
:1001610030E715B2D5E4C39FFFE49EFE1200FCC345
:10017100E49DFDE49CFC80031200FC30D507C3E440
:060181009FFFE49EFE2238
:0E018700C3E49FFFE49EFEE49DFDE49CFC2289
:00000001FF
