:0908E600073A18030B0D2E000166
:05000300C2B5C2B622E7
:0506E4002DFDEE3CFCC1
:0606E9008C318D32AB07DD
:1006EF00D2B5E4FD7E007401A805088005C333CEA2
:1006FF0033CED8F9FFEBF582EF558224FF92B4C2C7
:10070F00B6D2B60DBD08DDE4FD7E007401A8050864
:10071F008005C333CE33CED8F9FFE5315EFEE53227
:0E072F005F4E24FF92B4C2B6D2B60DBD08DBF9
:01073D002299
:02073E00AD0705
:10074000E4F9430501D2B5FB7E007401A8030880DB
:1007500005C333CE33CED8F9FFEDF582EF558224B1
:10076000FF92B4C2B6D2B60BBB08DDE4FBD2B6C270
:10077000B630B40DA8037401088002C333D8FC421C
:0B078000010BBB08E8C2B5C2B4AF011A
:01078B00224B
:10022D00E4FDFC7F8E1206E9E53A75F00A1203A78C
:10023D00FF3395E0FEEFC4F8540FC868FFEEC454C9
:10024D00F048FEE53A75F00A1203A7ADF0ED3395CF
:10025D00E0FCEF7F8C1206E4E53B75F00A1203A774
:10026D00FF3395E0FEEFC4F8540FC868FFEEC45499
:10027D00F048FEE53B75F00A1203A7ADF0ED33959E
:10028D00E0FCEF7F881206E4E53C75F00A1203A747
:10029D00FF3395E0FEEFC4F8540FC868FFEEC45469
:1002AD00F048FEE53C75F00A1203A7ADF0ED33956D
:1002BD00E0FCEF2DFDEE3CFC7F861206E9E53D7579
:1002CD00F00A1203A7FF3395E0FEEFC4F8540FC8F0
:1002DD0068FFEEC454F048FEE53D75F00A1203A721
:1002ED00ADF0ED3395E0FCEF2DFDEE3CFC7F84127F
:1002FD0006E9E53E75F00A1203A7FF3395E0FEEF20
:10030D00C4F8540FC868FFEEC454F048FEE53E75BE
:10031D00F00A1203A7ADF0ED3395E0FCEF2DFDEEE5
:10032D003CFC7F821206E9E53F75F00A1203A7FF38
:10033D003395E0FEEFC4F8540FC868FFEEC454F0D7
:10034D0048FEE53F75F00A1203A7ADF0ED3395E0D9
:10035D00FCEF2DFDEE3CFC7F801206E9E54075F0CB
:10036D000A1203A7FF3395E0FEEFC4F8540FC868D7
:10037D00FFEEC454F048FEE54075F00A1203A7AD38
:10038D00F0ED3395E0FCEF2DFDEE3CFC7F8A12067F
:0A039D00E97D807C007F8E0206E9F6
:10050D007F8C12073EEFC4540F75F00AA4FEEF5412
:10051D000F2EF53A7F8812073EEFC4540F75F00A7F
:10052D00A4FEEF540F2EF53B7F8612073EEFC45409
:10053D000F75F00AA4FEEF540F2EF53C7F841207C1
:10054D003EEFC4540F75F00AA4FEEF540F2EF53D87
:10055D007F8212073EEFC4540F75F00AA4FEEF54CC
:10056D000F2EF53E7F8012073EEFC4540F75F00A33
:10057D00A4FEEF540F2EF53F7F8A12073EEFC454B1
:0C058D000F75F00AA4FEEF540F2EF5408D
:01059900223F
:0609CF00C2A58F80D2A733
:0809D5007F027EEFDEFEDFFC75
:0109DD0022F7
:0A09E900C2A61209CFC2A70209D569
:10093A00CFCDCFCECCCE1204087C007D0A1204089B
:04094A00ED2430FF69
:0A094E00D2A61209CFC2A70209D5F4
:1009A500AE07BE0104ED148006BE0209ED243F44E6
:0609B50080FF1209E92297
:1009BB007F381209E97F0C1209E97F061209E97FDA
:0409CB00010209E933
:0A09F300AC031209A5AF0402094E7F
:060917008B318A328933A6
:10091D001209A5E4FDAB31AA32A9338D827583008E
:0C092D001203C9FF600612094E0D80E99C
:01093900229B
:0C08B3007F0AEA24FFFDE434FFFC7E0015
:0808BF008E368F378C388D391D
:1008C7007F017E00E4FBEBC39539E5386480F8745B
:0E08D7008098500AAC36AD371203F60B80E85D
:0108E50022F0
:040958008A338B341F
:10095C001209A5AA35EAD39400400D1208B3AC33A2
:08096C00AD3412093A1A80EDC6
:010974002260
:1007CF001209A5C3EA64809480400B7F2B12094E57
:1007DF008A468B47800E7F2D12094EC3E49BF54747
:1007EF00E49AF546AA45EAD39400400D1208B3AC3B
:0907FF0046AD4712093A1A80EDDB
:0108080022CD
:040809008A4A8B4B41
:10080D001209A5AA4CEAD3940040297F101208B50D
:10081D00AC4AAD4BCFCDCFCECCCE120408EF540F9A
:10082D00FEC3940AEE5004243080022437FF1209CF
:04083D004E1A80D1FE
:010841002294
:04087B008A4F8B50C5
:10087F001209A5AA51EAD394004028EA24FFFDE407
:10088F0034FFFC7F027E001208BFAC4FAD50CFCDBE
:10089F00CFCECCCE120408EF54012430FF12094EF4
:0308AF001A80D2DA
:0108B2002223
:0B09DE002D003A002020002020200007
:1008EF000729630C1F173B3B071C0C4D6F6E005401
:1008FF0075650057656E0054757200467269005336
:07090F0061740053756E00D6
:10045D0012050DE53AFB3395E0FA7535027D017F06
:10046D0001120958E53BFB3395E0FA7535027D0421
:10047D007F01120958E53CFB3395E0FA7535027D95
:10048D00077F011209587BFF7A0979DE7D037F0111
:10049D001209177BFF7A0979DE7D067F0112091794
:1004AD00E54075F004A42408F9E4FAFB7D0A7F0108
:1004BD00120917E53DFB3395E0FA7535027D017F95
:1004CD0002120958E53EFB3395E0FA7535027D04BD
:1004DD007F02120958E53FFB3395E0FA7535027D31
:1004ED00077F021209587BFF7A0979E07D037F02AD
:1004FD001209177BFF7A0979E07D067F0202091741
:10068700E53B64016023E53B6403601DE53B6405CE
:100697006017E53B64076011E53B6408600BE53BC9
:1006A700640A6005E53BB40C04752B1F22E53B6427
:1006B700046011E53B6406600BE53B64096005E5F2
:1006C7003BB40B04752B1E22E53A75F0041203A701
:0D06D700AFF0EF7004752B1D22752B1C2257
:10000E00E530B4020B050AE50A75F0078485F00A9F
:10001E00E53064037076743A250AF806E50A640141
:10002E00600CE50A64026006E50A6406703E12067C
:10003E00877429250AF8E6FF743A250AF8E6FED3F6
:10004E00EF6480F8EE6480984007743A250AF876DB
:10005E0001E50A64017035120687D3E52B6480F83A
:10006E00E53C6480984025852B3C80207429250A28
:10007E00F8E6FF743A250AF8E6FED3EF6480F8EE50
:10008E006480984007743A250AF8E4F6E530640473
:10009E00706C743A250AF816E50A6401600CE50ADC
:1000AE0064026006E50A64067039120687743A2502
:1000BE000AF8E6C364809481500E7429250AF8E686
:1000CE00FF743A250AF8A607E50A64017030120695
:1000DE0087D3E52B6480F8E53C6480984020852B1F
:1000EE003C801B743A250AF8E6C364809480500E57
:1000FE007429250AF8E6FF743A250AF8A607E50AD8
:10010E007014E528B4010F7BFF7A0979E27D017F37
:10011E00011209178011E53AFB3395E0FA753502A5
:10012E007D017F01120958E50AB40114E528B401D6
:10013E000F7BFF7A0979E27D047F01120917801186
:10014E00E53BFB3395E0FA7535027D047F0112091C
:10015E0058E50AB40214E528B4010F7BFF7A097939
:10016E00E27D077F011209178011E53CFB3395E014
:10017E00FA7535027D077F01120958E50AB403149A
:10018E00E528B4010F7BFF7A0979E27D017F021227
:10019E0009178011E53DFB3395E0FA7535027D01B7
:1001AE007F02120958E50AB40414E528B4010F7B46
:1001BE00FF7A0979E27D047F021209178011E53E6C
:1001CE00FB3395E0FA7535027D047F02120958E57E
:1001DE000AB40514E528B4010F7BFF7A0979E27D94
:1001EE00077F021209178011E53FFB3395E0FA7580
:1001FE0035027D077F02120958E50AB4060DE5287F
:10020E00B401087BFF7A0979E5800CE54075F004AE
:0F021E00A42408F9E4FAFB7D0A7F0112091722D4
:10078C007FD07E071209751209BB12000312098E65
:10079C0012022D1206268F30E530B40114E50B70D1
:1007AC0005750B01800BE50BB4010612022DE4F567
:1007BC000BE50B1460080470DA12045D80D512008E
:0307CC000E80D0CC
:03000B00020842A6
:09084200C0E0C0D075D000C00771
:10084B00758A66758CFC0509E50970020508C39469
:10085B00F4E50894014012750800750900E528704D
:09086B00047F0180027F008F2848
:07087400D007D0D0D0E03224
:10062600E4F53120B1137F14FE12097530B1FD7F58
:10063600147E0012097575310120B0147F147E00F6
:1006460012097530B0FD7F147E00120975753102EE
:1006560020B2147F147E0012097530B2FD7F147E1D
:100666000012097575310320B3147F147E00120938
:100676007530B3FD7F147E00120975753104AF31F4
:010686002251
:10098E005389F0438901C28DD28C758A66758CFCB1
:07099E00D2A9D2AFC2B922B9
:10097500D3EF9400EE9400400F7D027CEFDCFEDDAA
:08098500FCEF1F70EB1E80E87F
:01098D002247
:0300000002059A5C
:0C059A00787FE4F6D8FD7581510205E180
:1003A700C2D530F707B2D563F0FF05F030E70CB2DE
:1003B700D5F4048463F0FF05F080018430D502F49E
:0203C70004220E
:1003C900BB010CE58229F582E5833AF583E02250E9
:1003D90006E92582F8E622BBFE06E92582F8E22233
:0D03E900E58229F582E5833AF583E493224D
:1003F600EF8DF0A4A8F0CF8CF0A428CE8DF0A42E1B
:02040600FE22D4
:10040800BC000BBE0029EF8DF084FFADF022E4CCD8
:10041800F875F008EF2FFFEE33FEEC33FCEE9DECA1
:10042800984005FCEE9DFE0FD5F0E9E4CEFD22EDE7
:10043800F8F5F0EE8420D21CFEADF075F008EF2F31
:10044800FFED33FD4007985006D5F0F222C398FD22
:050458000FD5F0EA22BF
:1005A60002078CE493A3F8E493A34003F68001F2D8
:1005B60008DFF48029E493A3F85407240CC8C33356
:1005C600C4540F4420C8834004F456800146F6DF25
:1005D600E4800B01020408102040809008E6E47EC7
:1005E600019360BCA3FF543F30E509541FFEE4931A
:1005F600A360010ECF54C025E060A840B8E493A3E1
:10060600FAE493A3F8E493A3C8C582C8CAC583CA0B
:10061600F0A3C8C582C8CAC583CADFE9DEE780BEC3
:0109160000E0
:00000001FF
