:0C073B0054656D70657261747572650024
:1004510012072E7FE87E031206991206F97BFF7AB6
:1004610007793B7D017F0112060412072E1205D97F
:100471008F258E248D238C22E4FFFEFDFCAB25AA63
:1004810024A923A8221201A950047B2D8018E4FF7E
:10049100FEFDFCAB25AA24A923A8221201A9700400
:1004A1007B2080027B2B7D017F0212075DAF25AE91
:1004B10024AD23AC22120260AB07AA06750C027DA3
:1004C100027F021206457B2E7D047F0212075DE446
:1004D100FFFE7D207C41AB25AA24A923A82212007E
:1004E10003120260E47B0AFAF9F81203B1750C01F8
:0A04F1007D057F0212064502046B30
:10069900D3EF9400EE9400400F7D027CEFDCFEDD89
:0806A900FCEF1F70EB1E80E85E
:0106B1002226
:06071F00C2A58F80D2A7E5
:080725007F027EEFDEFEDFFC27
:01072D0022A9
:0A075300C2A612071FC2A702072565
:10062700CFCDCFCECCCE1203207C007D0A12032083
:04063700ED2430FF7F
:0A063B00D2A612071FC2A70207256E
:1006E300AE07BE0104ED148006BE0209ED243F44AB
:0606F30080FF12075322F4
:1006F9007F381207537F0C1207537F061207537F67
:04070900010207538F
:0A075D00AC031206E3AF0402063BF2
:060604008B088A09890A37
:10060A001206E3E4FDAB08AA09A90A8D82758300E4
:0C061A001202E1FF600612063B0D80E9B1
:0106260022B1
:0C05A6007F0AEA24FFFDE434FFFC7E0025
:0805B2008E0D8F0E8C0F8D10D1
:1005BA007F017E00E4FBEBC39510E50F6480F874BD
:0E05CA008098500AAC0DAD0E12030E0B80E8A7
:0105D8002200
:040645008A0A8B0B87
:100649001206E3AA0CEAD39400400D1205A6AC0ADF
:08065900AD0B1206271A80ED1B
:010661002276
:1004FB001206E3C3EA64809480400B7F2B12063B09
:10050B008A168B17800E7F2D12063BC3E49BF517C3
:10051B00E49AF516AA15EAD39400400D1205A6AC81
:09052B0016AD171206271A80ED27
:0105340022A4
:040535008A1A8B1B78
:100539001206E3AA1CEAD3940040297F101205A8E9
:10054900AC1AAD1BCFCDCFCECCCE120320EF540FBA
:10055900FEC3940AEE5004243080022437FF1206A9
:040569003B1A80D1E8
:01056D00226B
:04056E008A1F8B2035
:100572001206E3AA21EAD394004028EA24FFFDE40C
:1005820034FFFC7F027E001205B2AC1FAD20CFCD3E
:10059200CFCECCCE120320EF54012430FF12063B03
:0305A2001A80D2EA
:0105A5002233
:0D072E0012067F7FCC1206B27F440206B295
:1005D90012067F7FCC1206B27FBE1206B2120662E5
:1005E9008F08120662EFFEE508FFFDAC06EC120269
:0B05F90027E4FBFA7980784102010C36
:10067F00D2B7C2B77FE3DFFED2B77F1DDFFEA2B7CF
:09068F00E433FE7FE3DFFEAF0659
:01069800223F
:10070D00C2B77E02DEFEEF24FF92B77E14DEFED26C
:01071D00B724
:01071E0022B8
:1006CB00C2B77F01DFFED2B77F01DFFEA2B7E433F3
:0706DB00FE7F14DFFEAF06F5
:0106E20022F5
:0206B200AD0792
:1006B400E4FCA8047401088002C333D8FC5DFF1273
:0606C400070D0CBC08EC60
:0106CA00220D
:10066200E4FDFC1206CBEF600DA8047401088002C1
:0C067200C333D8FC42050CBC08E9AF05FE
:01067E002259
:10000300EC4D6011E8497017ED33EC3304600DE4F7
:10001300FCFFFEFD22E933E8330470F80202CC1240
:10002300029758046009E4CC248150062850090241
:1000330002D62840030202D3C0E0EB4A7044B980E1
:1000430006D0E0FB0202C2EF4E701CBD8008EBFF3E
:10005300EAFEE9FD80EBE98DF0A4FEE5F00200EC99
:10006300E9CDF9EAFEEBFFEF89F0A4FCE5F0CE89D8
:10007300F0A42EFFE435F0CD89F0A42DFEE435F095
:100083008067EF4E7005BD80D780C3EF8BF0A4ACC3
:10009300F0EE8BF0A42CFCE435F0F8EF8AF0A42CFE
:1000A300E5F038FCE433CB8DF0A42CFCE5F03BF811
:1000B300EE8AF0A42CFCE5F038F8E433CF89F0A401
:1000C3002CFCE5F038CF3400CE89F0A42FFFE5F007
:1000D3003EFEE433C98DF0A42EFEE5F039CD8AF05F
:1000E300A42FFFE5F03EFEE43DFD33D0E0FB5007D7
:1000F3000BBB000F0202D6EC2CFCEF33FFEE33FEFA
:06010300ED33FD0202AE27
:100109000202D6EC5D046005E8590470030202CCD2
:10011900120297580460F6EC4860F2EC7004FDFE98
:10012900FF22C860DB2481C85009C39860025006C9
:100139000202D39850CAF582E9294B4A7005AB826D
:100149000202C275F0007C1A7880C3EF9BEE9AED2B
:1001590099400DC3EF9BFFEE9AFEED99FDE842F041
:10016900DC23ACF0D0E0FFD0E0FED0E0FDAB822094
:10017900E7101BEB60BAEC2CFCEF33FFEE33FEED1E
:1001890033FD0202AEE803F830E705C0F075F00070
:10019900EF2FFFEE33FEED33FD40B830E7C280AA02
:1001A90074F8CC6480CCC86480C8F58204604FC3FD
:1001B900EB9FF5F0EA9E42F0E99D42F0E89C45F09C
:1001C900603C501DE5825FFFE582D313CB5BCBF426
:1001D9002B5582FB50280ABA002409B9002008804F
:1001E9001DE5825BFBE582D313CF5FCFF4C3132FE9
:1001F9005582FF50090EBE00050DBD00010CC3EB71
:100209009FF5F0EA9E42F0E99D42F0E89C45F060D6
:0902190007CC4820E701B3EC22F8
:1002220075F020800E75F010800575F0087D007E57
:10023200007F003392D530D503120443EC334010D3
:10024200EF33FFEE33FEED33FDEC33FCD5F0ED2260
:0E025200E5F0247EA2D513CC92E7CDCEFF229C
:10026000EDD2E7CD33EC3392D524814006E4FFFE96
:10027000FDFC22FCE4CFCECDCC24E0501174FF80F5
:10028000EDC3CC13CCCD13CDCE13CECF13CF047092
:07029000F030D5DE0204434B
:10029700E9D2E7C933E833F892D5EDD2E7CD33ECAD
:0702A70033FC5002B2D52226
:1002AE00EC30E7100FBF000C0EBE00080DBD0004B1
:1002BE000BEB6014A2D5EB13FCED92E7FD2274FF5D
:1002CE00FCFDFEFF22E480F8A2D574FF13FC7D80B6
:0302DE00E480EFCA
:03000000020747AD
:0C074700787FE4F6D8FD7581250204518E
:1002E100BB010CE58229F582E5833AF583E02250D2
:1002F10006E92582F8E622BBFE06E92582F8E2221C
:0D030100E58229F582E5833AF583E4932235
:10030E00EF8DF0A4A8F0CF8CF0A428CE8DF0A42E03
:02031E00FE22BD
:10032000BC000BBE0029EF8DF084FFADF022E4CCC1
:10033000F875F008EF2FFFEE33FEEC33FCEE9DEC8A
:10034000984005FCEE9DFE0FD5F0E9E4CEFD22EDD0
:10035000F8F5F0EE8420D21CFEADF075F008EF2F1A
:10036000FFED33FD4007985006D5F0F222C398FD0B
:050370000FD5F0EA22A8
:1003750075F008758200EF2FFFEE33FECD33CDCC3F
:1003850033CCC58233C5829BED9AEC99E5829840C2
:100395000CF582EE9BFEED9AFDEC99FC0FD5F0D69F
:1003A500E4CEFBE4CDFAE4CCF9A88222B800C1B9C9
:1003B5000059BA002DEC8BF084CFCECDFCE5F0CB07
:1003C500F97818EF2FFFEE33FEED33FDEC33FCEB40
:1003D50033FB10D703994004EB99FB0FD8E5E4F9FB
:1003E500FA227818EF2FFFEE33FEED33FDEC33FCE8
:1003F500C933C910D7059BE99A4007EC9BFCE99ADC
:10040500F90FD8E0E4C9FAE4CCFB2275F010EF2F20
:10041500FFEE33FEED33FDCC33CCC833C810D70720
:100425009BEC9AE899400AED9BFDEC9AFCE899F85B
:0E0435000FD5F0DAE4CDFBE4CCFAE4C8F922EE
:0E044300C3E49FFFE49EFEE49DFDE49CFC22CA
:00000001FF
