:1004B90050617373776F7264005061737300457292
:0A04C900726F720020202020200036
:0405390002180000A4
:10018C001205027BFF7A0479B97D017F0112045BB1
:10019C001200038F1CE51C60F7D3940A5041C3E591
:1001AC00199404E51894005028AE1AAF1B7C007DFE
:1001BC000A12028A8E1A8F1BE51C75F00A84E5F070
:1001CC00251BF51BE4351AF51A0519E519700205FE
:1001DC0018750C04AB1BAA1A7D017F0212049CE556
:1001EC001C640B704AE51BB4290DE51AB409087B95
:1001FC00FF7A0479C280067BFF7A0479C77D0A7F77
:10020C000112045BE4F51AF51BF518F519750C04CD
:10021C00AB1BAA1A7D017F0212049C7FE87E03129D
:10022C0004D37BFF7A0479CD7D0A7F0112045BE550
:10023C001C640C600302019CF51AF51BF518F519EA
:10024C00750C04AB1BAA1A7D017F0212049C0201DF
:01025C009C05
:1004D300D3EF9400EE9400400F7D027CEFDCFEDD51
:0804E300FCEF1F70EB1E80E826
:0104EB0022EE
:06051600C2A58F80D2A7F0
:08051C007F027EEFDEFEDFFC32
:0105240022B4
:0A052500C2A6120516C2A702051CAB
:10047E00CFCDCFCECCCE12029C7C007D0A12029C38
:04048E00ED2430FF2A
:0A049200D2A6120516C2A702051C2F
:1004EC00AE07BE0104ED148006BE0209ED243F44A4
:0604FC0080FF120525221D
:100502007F381205257F0C1205257F061205257FEF
:0405120001020525B8
:0A052F00AC031204ECAF04020492C6
:06045B008B088A09890AE2
:100461001204ECE4FDAB08AA09A90A8D8275830088
:0C04710012025DFF60061204920D80E98B
:01047D00225C
:0C0428007F0AEA24FFFDE434FFFC7E00A4
:080434008E0D8F0E8C0F8D1050
:10043C007F017E00E4FBEBC39510E50F6480F8743C
:0E044C008098500AAC0DAD0E12028A0B80E8AB
:01045A00227F
:04049C008A0A8B0B32
:1004A0001204ECAA0CEAD39400400D120428AC0A02
:0804B000AD0B12047E1A80ED71
:0104B8002221
:10037D001204ECC3EA64809480400B7F2B1204922C
:10038D008A168B17800E7F2D120492C3E49BF517EE
:10039D00E49AF516AA15EAD39400400D120428AC80
:0903AD0016AD1712047E1A80ED52
:0103B6002224
:0403B7008A1F8B20EE
:1003BB001204ECAA21EAD3940040297F1012042ADC
:1003CB00AC1FAD20CFCDCFCECCCE12029CEF540FB5
:1003DB00FEC3940AEE5004243080022437FF12042B
:0403EB00921A80D111
:0103EF0022EB
:0403F0008A248B25AB
:1003F4001204ECAA26EAD394004028EA24FFFDE480
:1004040034FFFC7F027E00120434AC24AD25CFCD32
:10041400CFCECCCE12029CEF54012430FF120492B2
:030424001A80D269
:0104270022B2
:10000300E4F5087590FFC2932097137F14FE120442
:10001300D33097FD7F147E001204D3750801209618
:10002300147F147E001204D33096FD7F147E0012D9
:1000330004D37508052095147F147E001204D33071
:1000430095FD7F147E001204D37508092094147F54
:10005300147E001204D33094FD7F147E001204D367
:1000630075080D7590FFC2922097147F147E0012BD
:1000730004D33097FD7F147E001204D37508022049
:1000830096147F147E001204D33096FD7F147E00F5
:100093001204D37508062095147F147E001204D32E
:1000A3003095FD7F147E001204D375080A20941442
:1000B3007F147E001204D33094FD7F147E0012045B
:1000C300D375080E7590FFC2912097147F147E009C
:1000D3001204D33097FD7F147E001204D3750803F6
:1000E3002096147F147E001204D33096FD7F147E75
:1000F300001204D37508072095147F147E001204A0
:10010300D33095FD7F147E001204D375080B209421
:10011300147F147E001204D33094FD7F147E0012EA
:1001230004D375080F7590FFC2902097147F147E37
:10013300001204D33097FD7F147E001204D3750898
:10014300042096147F147E001204D33096FD7F148E
:100153007E001204D37508082095147F147E0012C4
:1001630004D33095FD7F147E001204D375080C2050
:1001730094147F147E001204D33094FD7F147E0008
:080183001204D3750810AF0847
:01018B002251
:030000000202F108
:0C02F100787FE4F6D8FD75812602033802
:10025D00BB010CE58229F582E5833AF583E0225056
:10026D0006E92582F8E622BBFE06E92582F8E222A0
:0D027D00E58229F582E5833AF583E49322BA
:10028A00EF8DF0A4A8F0CF8CF0A428CE8DF0A42E88
:02029A00FE2242
:10029C00BC000BBE0029EF8DF084FFADF022E4CC46
:1002AC00F875F008EF2FFFEE33FEEC33FCEE9DEC0F
:1002BC00984005FCEE9DFE0FD5F0E9E4CEFD22ED55
:1002CC00F8F5F0EE8420D21CFEADF075F008EF2F9F
:1002DC00FFED33FD4007985006D5F0F222C398FD90
:0502EC000FD5F0EA222D
:1002FD0002018CE493A3F8E493A34003F68001F28A
:10030D0008DFF48029E493A3F85407240CC8C33301
:10031D00C4540F4420C8834004F456800146F6DFD0
:10032D00E4800B0102040810204080900539E47E22
:10033D00019360BCA3FF543F30E509541FFEE493C5
:10034D00A360010ECF54C025E060A840B8E493A38C
:10035D00FAE493A3F8E493A3C8C582C8CAC583CAB7
:10036D00F0A3C8C582C8CAC583CADFE9DEE780BE6F
:01053D0000BD
:00000001FF
