:03021200012600C2
:10018E00120266C2A1E4F5258525227F0A7E0012A1
:10019E00024D0525E525C3946440ED75256485253E
:1001AE0022D525FA1200038F23E523B40105052677
:1001BE00532603E5260475F005A4F522E526240151
:0B01CE00FDE433FC7F0112029380BAB5
:03000B0002000EE2
:10000E00C0E0C0F0C083C082C0D075D000C000C0B8
:0D001E0001C002C003C004C005C006C00739
:10002B00758AA4758CFF0524E52475F0148485F07E
:10003B0024E524C395225006D2A1C2A08004C2A1FC
:10004B00D2A0051FE51F7002051ED394C8E51E94B0
:10005B00004009751E00751F001201D90521E5210D
:10006B0070020520D3940AE5209400400975200006
:06007B00752100120232A3
:10008100D007D006D005D004D003D002D001D000D3
:0B009100D0D0D082D083D0F0D0E0327D
:10024D00D3EF9400EE9400400F7D027CEFDCFEDDD9
:08025D00FCEF1F70EB1E80E8AE
:010265002276
:100215000915000A0A0A0A0A0A0A0A0C093F065BB6
:0C0225004F666D7D077F6F0040010801EF
:09029300AE0574152FF8A6062231
:10012800E4F580EF14B40800505490014075F003D2
:10013800A4C58325F0C5837302015802015C02013E
:100148006002016402016802017002017802018004
:10015800D2A4800ED2A48012D2A48016D2A4801A6F
:10016800C2A4D2A3D2A28016C2A4D2A3C2A2800ED5
:10017800C2A4C2A3D2A28006C2A4C2A3C2A2740906
:060188002DF8E6F58022CF
:1002320074152508F8E6FD7C00AF081201280508B0
:0A024200E508C394094003750801A4
:01024C00228F
:05000300AF29E4F5291E
:0100080022D5
:10027D00E4FF20B1010F20B0027F0220B2027F0304
:05028D0020B3027F0414
:010292002249
:1001D90085272812027D8F27E5287008E527B401B5
:1001E90003752901E528B40207E52770037529027B
:1001F900E528B40307E5277003752903E528B40446
:0802090007E5277003752904C5
:0102110022CA
:100266005389F0438901C28DD28C758A66758CFCE0
:07027600D2A9D2AFC2B922E8
:0300000002009C5F
:0C009C00787FE4F6D8FD7581290200E3AE
:1000A80002018EE493A3F8E493A34003F68001F2DF
:1000B80008DFF48029E493A3F85407240CC8C33359
:1000C800C4540F4420C8834004F456800146F6DF28
:1000D800E4800B0102040810204080900212E47EA4
:1000E800019360BCA3FF543F30E509541FFEE4931D
:1000F800A360010ECF54C025E060A840B8E493A3E4
:10010800FAE493A3F8E493A3C8C582C8CAC583CA0E
:10011800F0A3C8C582C8CAC583CADFE9DEE780BEC6
:0102310000CC
:00000001FF
