:0B033C0041444A204E54432052470029
:10013B001202EC7BFF7A03793C7D017F0112027581
:10014B007F9C1200CD8E218F22750C03AB22AA212E
:10015B007D017F021202B67FDC1200CD8E218F2231
:10016B00750C03AB22AA217D057F021202B67FAC70
:10017B001200CD8E218F22750C03AB22AA217D0993
:0E018B007F021202B67F0A7E001202D380B2FB
:1002D300D3EF9400EE9400400F7D027CEFDCFEDD53
:0802E300FCEF1F70EB1E80E828
:0102EB0022F0
:06030000C2A58F80D2A708
:09030600007F027EC7DEFEDFFC71
:01030F0022CB
:0A034700C2A6120300C2A7020306BB
:10029800CFCDCFCECCCE1200427C007D0A120042D8
:0402A800ED2430FF12
:0A02AC00D2A6120300C2A702030647
:1002EC007F381203477F0C1203477F061203477FA8
:0402FC0001020347B1
:10031000EDBF0103148002243F4480FF12034722F3
:10032000EFD3940040047F1880027F1C1203472201
:0A035100AC03120310AF040202AC6B
:060275008B088A09890ACA
:10027B00120310E4FDAB08AA09A90A8D827583004D
:0C028B00120003FF60061202AC0D80E9B7
:010297002244
:0C0247007F0AEA24FFFDE434FFFC7E0087
:080253008E0D8F0E8C0F8D1033
:10025B007F017E00E4FBEBC39510E4950F500AACD5
:09026B000DAD0E1200300B80ED08
:010274002267
:0402B6008A0A8B0B1A
:1002BA00120310AA0CEAD39400400D120247AC0AAA
:0802CA00AD0B1202981A80ED41
:0102D2002209
:1001D600120310C3EA64809480400B7F2B1202AC9A
:1001E6008A168B17800E7F2D1202ACC3E49BF5177F
:1001F600E49AF516AA15EAD39400400D120247AC0C
:0902060016AD171202981A80EDE2
:01020F0022CC
:020199008B1FBA
:10019B00120310AA20EAD39400402F7F10120249B9
:1001AB00AD1F7C00CFCDCFCECCCE1200977C007D87
:1001BB0010120097AE05EEC3940AEE500424308063
:0A01CB00022437FF1202AC1A80CBA9
:0101D5002207
:020210008B1A47
:10021200120310AA1BEAD394004029EA24FFFDE44A
:1002220034FFFC7F027E00120253AD1A7C00CFCD58
:10023200CFCECCCE1200977C007D02120097120224
:04024200A81A80D1A5
:010246002295
:0200CD00AD077D
:1000CF00E4F508F509C2B5C2B6FB7E007480A8033B
:1000DF00088006CEA2E713CE13D8F8FFEDF582EF16
:1000EF00558224FF92B4D2B6C2B60BBB08DCE4FB38
:1000FF00D2B6C2B630B7147E80E4A803088005CE0E
:10010F00C313CE13D8F94209EE42080BBB10E1D24C
:10011F00B5ED30E306E508FF7E0022E508C4F8548C
:0B012F00F0C868FEE509C4540F48FF4B
:01013A0022A2
:03000000020330C8
:0C033000787FE4F6D8FD75812202013BC5
:10000300BB010CE58229F582E5833AF583E02250B2
:1000130006E92582F8E622BBFE06E92582F8E222FC
:0D002300E58229F582E5833AF583E4932216
:10003000EF8DF0A4A8F0CF8CF0A428CE8DF0A42EE4
:02004000FE229E
:10004200BC000BBE0029EF8DF084FFADF022E4CCA2
:10005200F875F008EF2FFFEE33FEEC33FCEE9DEC6B
:10006200984005FCEE9DFE0FD5F0E9E4CEFD22EDB1
:10007200F8F5F0EE8420D21CFEADF075F008EF2FFB
:10008200FFED33FD4007985006D5F0F222C398FDEC
:050092000FD5F0EA2289
:10009700C2D5EC30E709B2D5E4C39DFDE49CFCEE84
:1000A70030E715B2D5E4C39FFFE49EFE120042C3BA
:1000B700E49DFDE49CFC800312004230D507C3E4B5
:0600C7009FFFE49EFE22F3
:00000001FF
