:1004F500517565656E6965277320436C6F636B0085
:100505002020202020202020202020202020200006
:040515002D003A007B
:1000ED007FE87E031205771205A61205E77BFF7ADE
:1000FD000479F57D017F011205197FF47E0112054A
:10010D00777BFF7A0579057D017F011205191200B4
:10011D0003120255E518FB7A00750C027D017F0173
:10012D0012055AE519FB7A00750C027D047F011248
:10013D00055AE51AFB7A00750C027D077F01120541
:10014D005A7BFF7A0579157D037F011205197BFF17
:10015D007A0579157D067F01120519E51EFB7A00DA
:10016D00750C017D0A7F0112055AE51BFB7A00759E
:10017D000C027D017F0212055AE51CFB7A00750CFD
:10018D00027D047F0212055AE51DFB7A00750C02F3
:10019D007D077F0212055A7BFF7A0579177D037F54
:1001AD00021205197BFF7A0579177D067F0212056C
:0401BD001902011E04
:0605BA00C2A58F80D2A74C
:0805C0007F027EEFDEFEDFFC8E
:0105C8002210
:0A05C900C2A61205BAC2A70205C0BF
:10053C00CFCDCFCECCCE1202007C007D0A120200B1
:04054C00ED2430FF6B
:0A055000D2A61205BAC2A70205C028
:10059000AE07BE0104ED148006BE0209ED243F44FF
:0605A00080FF1205C922D4
:1005A6007F381205C97F0C1205C97F061205C97F5F
:0405B600010205C970
:0A05D300AC03120590AF04020550BE
:060519008B088A09890A23
:10051F00120590E4FDAB08AA09A90A8D8275830024
:0C052F001201C1FF60061205500D80E9AA
:01053B00229D
:0C04C2007F0AEA24FFFDE434FFFC7E000A
:0804CE008E0D8F0E8C0F8D10B6
:1004D6007F017E00E4FBEBC39510E50F6480F874A2
:0E04E6008098500AAC0DAD0E1201EE0B80E8AE
:0104F40022E5
:04055A008A0A8B0B73
:10055E00120590AA0CEAD39400400D1204C2AC0A04
:08056E00AD0B12053C1A80EDF3
:010576002262
:10041700120590C3EA64809480400B7F2B1205502D
:100427008A168B17800E7F2D120550C3E49BF51794
:10043700E49AF516AA15EAD39400400D1204C2AC4B
:0904470016AD1712053C1A80EDF8
:010450002289
:040451008A218B224F
:10045500120590AA23EAD3940040297F101204C400
:10046500AC21AD22CFCDCFCECCCE120200EF540FB2
:10047500FEC3940AEE5004243080022437FF12058F
:04048500501A80D1B8
:010489002250
:04048A008A268B270C
:10048E00120590AA28EAD394004028EA24FFFDE43E
:10049E0034FFFC7F027E001204CEAC26AD27CFCDFA
:1004AE00CFCECCCE120200EF54012430FF120550F5
:0304BE001A80D2CF
:0104C1002218
:0905DD00071818030A151900079C
:0505E700C2B5C2B622FE
:06036E0025F0FDEC3EFC51
:060374008C088D09AB07A7
:10037A00D2B5E4FDC2B67E007401A805088005C3A3
:10038A0033CE33CED8F9FFEBF582EF558224FF92B4
:10039A00B4D2B60DBD08DDE4FDC2B67E007401A874
:1003AA0005088005C333CE33CED8F9FFE5085EFED3
:0E03BA00E5095F4E24FF92B4D2B60DBD08DBFC
:0103C8002212
:0203C900AD077E
:1003CB00E4F9430501D2B5FBC2B67E007401A80364
:1003DB00088005C333CE33CED8F9FFEDF582EF5548
:1003EB008224FF92B4D2B60BBB08DDE4FBD2B6C2BB
:1003FB00B630B40DA8037401088002C333D8FC4295
:0B040B00010BBB08E8C2B5C2B4AF0192
:0104160022C3
:10000300E4FDFC7F8E120374E51875F00A8475F025
:1000130010A4FFAEF0E51875F00A84EF7F8C12038D
:100023006EE51975F00A8475F010A4FFAEF0E519BA
:1000330075F00A847C00EF7F8812036EE51A75F071
:100043000A8475F010A4FFAEF0E51A75F00A847CFB
:1000530000EF25F0FDEC3EFC7F86120374E51B7573
:10006300F00A8475F010A4FFAEF0E51B75F00A8466
:100073007C00EF25F0FDEC3EFC7F84120374E51C4D
:1000830075F00A8475F010A4FFAEF0E51C75F00A54
:10009300847C00EF25F0FDEC3EFC7F82120374E5C7
:1000A3001D75F00A8475F010A4FFAEF0E51D75F020
:1000B3000A847C00EF25F0FDEC3EFC7F8012037484
:1000C300E51E75F00A8475F010A4FFAEF0E51E7509
:1000D300F00A847C00EF25F0FDEC3EFC7F8A1203DE
:0A00E300747D807C007F8E020374A0
:100255007F8C1203C9EFC4540F75F00AA4FEEF5446
:100265000F2EF5187F881203C9EFC4540F75F00AD5
:10027500A4FEEF540F2EF5197F861203C9EFC4545F
:100285000F75F00AA4FEEF540F2EF51A7F841203A2
:10029500C9EFC4540F75F00AA4FEEF540F2EF51BD9
:1002A5007F821203C9EFC4540F75F00AA4FEEF5400
:1002B5000F2EF51C7F801203C9EFC4540F75F00A89
:1002C500A4FEEF540F2EF51D7F8A1203C9EFC45407
:0C02D5000F75F00AA4FEEF540F2EF51E6A
:0102E10022FA
:10057700D3EF9400EE9400400F7D027CEFDCFEDDAC
:08058700FCEF1F70EB1E80E881
:01058F002249
:030000000202E217
:0C02E200787FE4F6D8FD7581280203291E
:1001C100BB010CE58229F582E5833AF583E02250F3
:1001D10006E92582F8E622BBFE06E92582F8E2223D
:0D01E100E58229F582E5833AF583E4932257
:1001EE00EF8DF0A4A8F0CF8CF0A428CE8DF0A42E25
:0201FE00FE22DF
:10020000BC000BBE0029EF8DF084FFADF022E4CCE2
:10021000F875F008EF2FFFEE33FEEC33FCEE9DECAB
:10022000984005FCEE9DFE0FD5F0E9E4CEFD22EDF1
:10023000F8F5F0EE8420D21CFEADF075F008EF2F3B
:10024000FFED33FD4007985006D5F0F222C398FD2C
:050250000FD5F0EA22C9
:1002EE000200EDE493A3F8E493A34003F68001F239
:1002FE0008DFF48029E493A3F85407240CC8C33311
:10030E00C4540F4420C8834004F456800146F6DFDF
:10031E00E4800B01020408102040809005DDE47E8D
:10032E00019360BCA3FF543F30E509541FFEE493D4
:10033E00A360010ECF54C025E060A840B8E493A39B
:10034E00FAE493A3F8E493A3C8C582C8CAC583CAC6
:10035E00F0A3C8C582C8CAC583CADFE9DEE780BE7E
:0105E6000014
:00000001FF
