:0602DB0048656C6C6F0029
:1000CD001202787B417D017F011202D17BFF7A0202
:1000DD0079DB7D027F01120201750C027B427A00F1
:1000ED007D017F02120242750C027BBE7AFF7D03F9
:1000FD007F02120162750B027BA57D067F02120144
:10010D0025750B087BA57D077F0112019C7BDF7D8B
:08011D00087F021202D180FEEE
:0602AC00C2A58F80D2A75D
:0802B2007F0C7EA9DEFEDFFCDB
:0102BA002221
:0A02C700C2A61202ACC2A70202B2E6
:10022400CFCDCFCECCCE1200427C007D0A1200424C
:04023400ED2430FF86
:0A023800D2A61202ACC2A70202B265
:100278007F381202C77F0C1202C77F061202C77F9F
:04028800010202C7A6
:10028C00EDBF0103148002243F4480FF1202C722F9
:10029C00EFD3940040047F1880027F1C1202C72207
:0A02D100AC0312028CAF04020238E5
:060201008B088A09890A3E
:1002070012028CE4FDAB08AA09A90A8D8275830046
:0C021700120003FF60061202380D80E99F
:0102230022B8
:0C01D3007F0AEA24FFFDE434FFFC7E00FC
:0801DF008E0F8F108C118D12A0
:1001E7007F017E00E4FBEBC39512E49511500AAC46
:0901F7000FAD101200300B80ED79
:0102000022DB
:040242008A0A8B0B8E
:1002460012028CAA0CEAD39400400D1201D3AC0A18
:08025600AD0B1202241A80ED29
:01025E00227D
:1001620012028CC3EA64809480400B7F2B12023807
:100172008A0D8B0E800E7F2D120238C3E49BF50E82
:10018200E49AF50DAA0CEAD39400400D1201D3AC07
:090192000DAD0E1202241A80EDDD
:01019B002241
:020125008B0A43
:1001270012028CAA0BEAD39400402F7F101201D53C
:10013700AD0A7C00CFCDCFCECCCE1200977C007D10
:1001470010120097AE05EEC3940AEE5004243080D7
:0A015700022437FF1202381A80CB91
:01016100227B
:02019C008B0ACC
:10019E0012028CAA0BEAD394004029EA24FFFDE454
:1001AE0034FFFC7F027E001201DFAD0A7C00CFCD52
:1001BE00CFCECCCE1200977C007D02120097120299
:0401CE00341A80D18E
:0101D200220A
:10025F00D3EF9400EE9400400F7D027CEFDCFEDDC7
:08026F00FCEF1F70EB1E80E89C
:010277002264
:030000000202BB3E
:0C02BB00787FE4F6D8FD7581120200CDBA
:10000300BB010CE58229F582E5833AF583E02250B2
:1000130006E92582F8E622BBFE06E92582F8E222FC
:0D002300E58229F582E5833AF583E4932216
:10003000EF8DF0A4A8F0CF8CF0A428CE8DF0A42EE4
:02004000FE229E
:10004200BC000BBE0029EF8DF084FFADF022E4CCA2
:10005200F875F008EF2FFFEE33FEEC33FCEE9DEC6B
:10006200984005FCEE9DFE0FD5F0E9E4CEFD22EDB1
:10007200F8F5F0EE8420D21CFEADF075F008EF2FFB
:10008200FFED33FD4007985006D5F0F222C398FDEC
:050092000FD5F0EA2289
:10009700C2D5EC30E709B2D5E4C39DFDE49CFCEE84
:1000A70030E715B2D5E4C39FFFE49EFE120042C3BA
:1000B700E49DFDE49CFC800312004230D507C3E4B5
:0600C7009FFFE49EFE22F3
:00000001FF
