:0602E5008F298C2A8D2BED
:1002EB001204117FA012030F1203FBEF7010AF2942
:1002FB0012030F1203FBEF7005AF2B12030F120348
:04030B00FB020003EE
:0202AF008F2995
:1002B1001204117FA012030F1203FBEF7020AF296C
:1002C10012030F1203FBEF70151204117FA1120329
:1002D1000F1203FB12035F8F2A7F01120407120022
:0302E10003AF2A3E
:0102E40022F7
:1003B500D3EF9400EE9400400F7D027CEFDCFEDD70
:0803C500FCEF1F70EB1E80E845
:0103CD00220D
:09041100D2A0D2A1C2A0C2A12216
:07000300C2A0D2A1D2A0228D
:02030F00AD0738
:10031100E4FB7E007480A803088006CEA2E713CE1A
:1003210013D8F8FFEDF582EF558224FF92A0D2A1F8
:06033100C2A10BBB08DCB9
:0103370022A3
:10035F00E4FFD2A0FED2A130A00DA80674800880C1
:0D036F0002C313D8FC4207C2A10EBE08E86D
:01037C00225E
:0A040700EF24FF92A0D2A1C2A122AF
:0B03FB00D2A0D2A1A2A0E433FFC2A157
:0104060022D3
:05042300AF2EE4F52EF0
:0104280022B1
:1003E500E4FF20B1010F20B0027F0220B2027F039B
:0503F50020B3027F04AB
:0103FA0022E0
:10027600852C2D1203E58F2CE52DB40107E52C7096
:1002860003752E01E52DB40207E52C7003752E02C9
:10029600E52DB40307E52C7003752E03E52DB40494
:0802A60007E52C7003752E041E
:0102AE00222D
:10000E001203CEE52575F00A84FD7C007F011204F3
:10001E001AE52575F00A84E5F0FD7C007F021204D6
:10002E001A7D0B7C007F0312041AE52475F00A84F6
:10003E00FD7C007F0412041AE52475F00A84E5F0B5
:10004E00FD7C007F0512041A7D0B7C007F061204D6
:10005E001AE52775F00A84FD7C007F0712041AE565
:10006E002775F00A84E5F0FD7C007F0812041A1251
:10007E0004238F28E528B4010CE52670047F018047
:10008E00027F008F26E528B40207E4F525F524F556
:10009E0027E52864037033E525FD7C00E4FF12029A
:1000AE00E57F057E001203B5E524FD7C007F01127D
:1000BE0002E57F057E001203B5E527FD7C007F0279
:1000CE001202E57F057E001203B5E5286404600385
:1000DE00020011FF1202AF8F257F011202AF8F2493
:0A00EE007F021202AF8F27020011FB
:10033800E52660220527E527C394644019E4F527DC
:100348000524E524943C400EE4F5240525E5259490
:070358003C4003E4F52522FF
:03000B000200F8F8
:1000F800C0E0C0F0C083C082C0D075D000C000C0CE
:0D01080001C002C003C004C005C006C0074E
:10011500758A66758CFC051FE51F7002051EC39464
:1001250014E51E94004009751E00751F0012027625
:100135000521E52170020520C39402E520940040C5
:100145000975200075210012039A0523E523700225
:100155000522C3940AE522940040097522007523FF
:040165000012033849
:10016900D007D006D005D004D003D002D001D000EA
:0B017900D0D0D082D083D0F0D0E03294
:1003CE005389F0438901C28DD28C758A66758CFC77
:0703DE00D2A9D2AFC2B9227F
:10037D000915000A0A0A0A0A0A0A0A0C093F065B4D
:0C038D004F666D7D077F6F004001080186
:09041A00AE0574152FF8A60622A8
:10021000E4F580EF14B40800505490022875F00300
:10022000A4C58325F0C58373020240020244020282
:100230004802024C020250020258020260020268A6
:10024000D2A4800ED2A48012D2A48016D2A4801A86
:10025000C2A4D2A3D2A28016C2A4D2A3C2A2800EEC
:10026000C2A4C2A3D2A28006C2A4C2A3C2A274091D
:060270002DF8E6F58022E6
:10039A0074152508F8E6FD7C00AF0812021005085E
:0A03AA00E508C3940940037508013B
:0103B4002226
:0300000002018476
:0C018400787FE4F6D8FD75812E0201CBD7
:1001900002000EE493A3F8E493A34003F68001F277
:1001A00008DFF48029E493A3F85407240CC8C33370
:1001B000C4540F4420C8834004F456800146F6DF3F
:1001C000E4800B010204081020408090037DE47E4F
:1001D000019360BCA3FF543F30E509541FFEE49334
:1001E000A360010ECF54C025E060A840B8E493A3FB
:1001F000FAE493A3F8E493A3C8C582C8CAC583CA26
:10020000F0A3C8C582C8CAC583CADFE9DEE780BEDD
:010399000063
:00000001FF
