:1009A600543A0054483A00544C3A004F762D4800C9
:0A09B6004F762D4300202020200082
:060003000116F6011514C0
:10045C00120A6E7FE87E031209C0E4FF1207EC8FCC
:10046C00157F011207EC8F16D3E515648094FD50AF
:10047C0015C3E51664809449400CE5166480F8E5D4
:10048C001564809850067515147516F6120A4B7B78
:10049C00FF7A0979A67D017F011208D37BFF7A09C7
:1004AC0079A97D017F021208D37BFF7A0979AD7D92
:1004BC00097F021208D3E515FB3395E0FA750C039E
:1004CC007D047F02120708E516FB3395E0FA750CE4
:1004DC00037D0C7F021207081209F2120AB58F1B5A
:1004EC00120A6E1208558F1A8E198D188C1712025B
:1004FC006BAB07AA06750C037D037F011207087B03
:10050C002E7D077F01120A9BE4FFFE7DC87C42AB67
:10051C001AAA19A918A81712000E12026BE47B6410
:10052C00FAF9F81203BC750C027D087F0112095010
:10053C00E51B70030205D4B4010E0515D3E5156453
:10054C008094FD400375157DE51BB402111515D380
:10055C00E5166480F8E51564809850020515E51BD6
:10056C00B403110516C3E5156480F8E5166480988C
:10057C0040021516E51BB4040E1516C3E51664806F
:10058C00944950037516C9E515FB3395E0FA750CC3
:10059C00037D047F02120708E516FB3395E0FA751C
:1005AC000C037D0C7F02120708E515FD3395E0FC6A
:1005BC00E4FF1208807F057E001209C0E516FD33AA
:1005CC0095E0FC7F01120880AC15EC120237AB1AD7
:1005DC00AA19A918A8171201B4600A40087BFF7A5F
:1005EC000979B18019AC16EC120237AB1AAA19A909
:1005FC0018A8171201B450107BFF7A0979B67D0D3B
:10060C007F011208D30204E77BFF7A0979BB7D0DC9
:08061C007F011208D30204E77C
:03000B000206B03A
:1006B000C0E0C0F0C083C082C0D075D000C000C010
:0D06C00001C002C003C004C005C006C00791
:1006CD00758A66758CFC0514E51470020513C394C8
:1006DD0014E5139400400975130075140012077B7F
:1006ED00D007D006D005D004D003D002D001D00061
:0B06FD00D0D0D082D083D0F0D0E0320B
:060880008F088C098D0AAF
:10088600120AA57FA01208AA120A7BEF7010AF0801
:100896001208AA120A7BEF7005AF0A1208AA120AFA
:0408A6007B020AAE19
:0207EC008F0874
:1007EE00120AA57FA01208AA120A7BEF7020AF088A
:1007FE001208AA120A7BEF7015120AA57FA1120821
:10080E00AA120A7B1208F68F097F01120A87120AB2
:03081E00AEAF0971
:0108210022B4
:1009C000D3EF9400EE9400400F7D027CEFDCFEDD5F
:0809D000FCEF1F70EB1E80E834
:0109D80022FC
:0D0A6E001209327FCC1209D97F440209D948
:100855001209327FCC1209D97FBE1209D912096D4E
:100865008F0812096DEFFEE508FFFDAC06EC1202DC
:0B08750032E4FBFA79807841020117A1
:090AA500D2A0D2A1C2A0C2A1227C
:070AAE00C2A0D2A1D2A022D8
:0208AA00AD0798
:1008AC00E4FB7E007480A803088006CEA2E713CE7A
:1008BC0013D8F8FFEDF582EF558224FF92A0D2A158
:0608CC00C2A10BBB08DC19
:0108D2002203
:1008F600E4FFD2A0FED2A130A00DA8067480088025
:0D09060002C313D8FC4207C2A10EBE08E8D0
:0109130022C1
:0A0A8700EF24FF92A0D2A1C2A12229
:0B0A7B00D2A0D2A1A2A0E433FFC2A1D0
:010A8600224D
:060A5F00C2A58F80D2A7A2
:080A65007F027EEFDEFEDFFCE4
:010A6D002266
:0A0A9100C2A6120A5FC2A7020A659E
:10091400CFCDCFCECCCE12032B7C007D0A12032B7D
:04092400ED2430FF8F
:0A092800D2A6120A5FC2A7020A65F8
:100A0900AE07BE0104ED148006BE0209ED243F4481
:060A190080FF120A912289
:100A4B007F38120A917F0C120A917F06120A917F4E
:040A5B0001020A91F9
:0A0A9B00AC03120A09AF0402092897
:0608D3008B088A09890A66
:1008D900120A09E4FDAB08AA09A90A8D82758300E9
:0C08E9001202ECFF60061209280D80E9E5
:0108F50022E0
:0C0822007F0AEA24FFFDE434FFFC7E00A6
:08082E008E0F8F108C118D124A
:100836007F017E00E4FBEBC39512E5116480F8743A
:0E0846008098500AAC0FAD101203190B80E819
:010854002281
:040950008A0A8B0B79
:10095400120A09AA0CEAD39400400D120822AC0A28
:08096400AD0B1209141A80ED1D
:01096C002268
:10070800120A09C3EA64809480400B7F2B120928DF
:100718008A0D8B0E800E7F2D120928C3E49BF50EDF
:10072800E49AF50DAA0CEAD39400400D120822AC05
:090738000DAD0E1209141A80ED3A
:010741002295
:040742008A1E8B1F61
:10074600120A09AA20EAD3940040297F101208242D
:10075600AC1EAD1FCFCDCFCECCCE12032BEF540F98
:10076600FEC3940AEE5004243080022437FF120997
:04077600281A80D1EC
:01077A00225C
:0407B4008A238B24E5
:1007B800120A09AA25EAD394004028EA24FFFDE496
:1007C80034FFFC7F027E0012082EAC23AD24CFCD6F
:1007D800CFCECCCE12032BEF54012430FF120928C0
:0307E8001A80D2A2
:0107EB0022EB
:10093200C2AFD2B7C2B77FE3DFFED2B77F1DDFFE01
:0D094200A2B7E433FE7FE3DFFED2AFAF06C5
:01094F002285
:100A1F00C2AFC2B77E02DEFEEF24FF92B77E14DEB6
:050A2F00FED2B7D2AFBA
:010A3400229F
:10098A00C2AFC2B77F01DFFED2B77F01DFFEA2B7D7
:0B099A00E433FE7F14DFFED2AFAF0697
:0109A500222F
:0209D900AD0768
:1009DB00E4FCA8047401088002C333D8FC5DFF1249
:0609EB000A1F0CBC08EC21
:0109F10022E3
:10096D00E4FDFC12098AEF600DA8047401088002F1
:0C097D00C333D8FC42050CBC08E9AF05F0
:01098900224B
:050AB500AF28E4F52864
:010ABA002219
:100A3500E4FF20B1010F20B0027F0220B2027F0344
:050A450020B3027F0454
:010A4A002289
:10077B00852627120A358F26E5277008E526B40152
:10078B0003752801E527B40207E5267003752802D7
:10079B00E527B40307E5267003752803E527B404A2
:0807AB0007E526700375280420
:0107B3002223
:1009F2005389F0438901C28DD28C758A66758CFC4D
:070A0200D2A9D2AFC2B92254
:10000E00EC4D6011E8497017ED33EC3304600DE4EC
:10001E00FCFFFEFD22E933E8330470F80202D7122A
:10002E0002A258046009E4CC24815006285009022B
:10003E0002E12840030202DEC0E0EB4A7044B980C0
:10004E0006D0E0FB0202CDEF4E701CBD8008EBFF28
:10005E00EAFEE9FD80EBE98DF0A4FEE5F00200F783
:10006E00E9CDF9EAFEEBFFEF89F0A4FCE5F0CE89CD
:10007E00F0A42EFFE435F0CD89F0A42DFEE435F08A
:10008E008067EF4E7005BD80D780C3EF8BF0A4ACB8
:10009E00F0EE8BF0A42CFCE435F0F8EF8AF0A42CF3
:1000AE00E5F038FCE433CB8DF0A42CFCE5F03BF806
:1000BE00EE8AF0A42CFCE5F038F8E433CF89F0A4F6
:1000CE002CFCE5F038CF3400CE89F0A42FFFE5F0FC
:1000DE003EFEE433C98DF0A42EFEE5F039CD8AF054
:1000EE00A42FFFE5F03EFEE43DFD33D0E0FB5007CC
:1000FE000BBB000F0202E1EC2CFCEF33FFEE33FEE4
:06010E00ED33FD0202B911
:100114000202E1EC5D046005E8590470030202D7B1
:100124001202A2580460F6EC4860F2EC7004FDFE82
:10013400FF22C860DB2481C85009C39860025006BE
:100144000202DE9850CAF582E9294B4A7005AB8257
:100154000202CD75F0007C1A7880C3EF9BEE9AED15
:1001640099400DC3EF9BFFEE9AFEED99FDE842F036
:10017400DC23ACF0D0E0FFD0E0FED0E0FDAB822089
:10018400E7101BEB60BAEC2CFCEF33FFEE33FEED13
:1001940033FD0202B9E803F830E705C0F075F0005A
:1001A400EF2FFFEE33FEED33FD40B830E7C280AAF7
:1001B40074F8CC6480CCC86480C8F58204604FC3F2
:1001C400EB9FF5F0EA9E42F0E99D42F0E89C45F091
:1001D400603C501DE5825FFFE582D313CB5BCBF41B
:1001E4002B5582FB50280ABA002409B90020088044
:1001F4001DE5825BFBE582D313CF5FCFF4C3132FDE
:100204005582FF50090EBE00050DBD00010CC3EB65
:100214009FF5F0EA9E42F0E99D42F0E89C45F060CB
:0902240007CC4820E701B3EC22ED
:10022D0075F020800E75F010800575F0087D007E4C
:10023D00007F003392D530D50312044EEC334010BD
:10024D00EF33FFEE33FEED33FDEC33FCD5F0ED2255
:0E025D00E5F0247EA2D513CC92E7CDCEFF2291
:10026B00EDD2E7CD33EC3392D524814006E4FFFE8B
:10027B00FDFC22FCE4CFCECDCC24E0501174FF80EA
:10028B00EDC3CC13CCCD13CDCE13CECF13CF047087
:07029B00F030D5DE02044E35
:1002A200E9D2E7C933E833F892D5EDD2E7CD33ECA2
:0702B20033FC5002B2D5221B
:1002B900EC30E7100FBF000C0EBE00080DBD0004A6
:1002C9000BEB6014A2D5EB13FCED92E7FD2274FF52
:1002D900FCFDFEFF22E480F8A2D574FF13FC7D80AB
:0302E900E480EFBF
:03000000020624D1
:0C062400787FE4F6D8FD75812802066B93
:1002EC00BB010CE58229F582E5833AF583E02250C7
:1002FC0006E92582F8E622BBFE06E92582F8E22211
:0D030C00E58229F582E5833AF583E493222A
:10031900EF8DF0A4A8F0CF8CF0A428CE8DF0A42EF8
:02032900FE22B2
:10032B00BC000BBE0029EF8DF084FFADF022E4CCB6
:10033B00F875F008EF2FFFEE33FEEC33FCEE9DEC7F
:10034B00984005FCEE9DFE0FD5F0E9E4CEFD22EDC5
:10035B00F8F5F0EE8420D21CFEADF075F008EF2F0F
:10036B00FFED33FD4007985006D5F0F222C398FD00
:05037B000FD5F0EA229D
:1003800075F008758200EF2FFFEE33FECD33CDCC34
:1003900033CCC58233C5829BED9AEC99E5829840B7
:1003A0000CF582EE9BFEED9AFDEC99FC0FD5F0D694
:1003B000E4CEFBE4CDFAE4CCF9A88222B800C1B9BE
:1003C0000059BA002DEC8BF084CFCECDFCE5F0CBFC
:1003D000F97818EF2FFFEE33FEED33FDEC33FCEB35
:1003E00033FB10D703994004EB99FB0FD8E5E4F9F0
:1003F000FA227818EF2FFFEE33FEED33FDEC33FCDD
:10040000C933C910D7059BE99A4007EC9BFCE99AD0
:10041000F90FD8E0E4C9FAE4CCFB2275F010EF2F15
:10042000FFEE33FEED33FDCC33CCC833C810D70715
:100430009BEC9AE899400AED9BFDEC9AFCE899F850
:0E0440000FD5F0DAE4CDFBE4CCFAE4C8F922E3
:0E044E00C3E49FFFE49EFEE49DFDE49CFC22BF
:1006300002045CE493A3F8E493A34003F68001F280
:1006400008DFF48029E493A3F85407240CC8C333CB
:10065000C4540F4420C8834004F456800146F6DF9A
:10066000E4800B0102040810204080900003E47E27
:10067000019360BCA3FF543F30E509541FFEE4938F
:10068000A360010ECF54C025E060A840B8E493A356
:10069000FAE493A3F8E493A3C8C582C8CAC583CA81
:1006A000F0A3C8C582C8CAC583CADFE9DEE780BE39
:0100090000F6
:00000001FF
