:10006D00D3EF9400EE9400400F7D027CEFDCFEDDBB
:08007D00FCEF1F70EB1E80E890
:010085002258
:05001E0012000380FE4A
:03002300020026B2
:10002600C0E0C0F0C083C082C0D075D000C000C0A0
:1000360001C002C003C004C005C006C00730980C4A
:10004600E599F4F5A0AF99120092C298D007D006B0
:10005600D005D004D003D002D001D000D0D0D082B9
:07006600D083D0F0D0E0329E
:1000030053877F75985053890F438920758BF475F7
:0B0013008DF4C2ABD28ED2AFD2AC2273
:080092008F993099FDC29922FB
:0300000002008675
:0C008600787FE4F6D8FD75810702001EAB
:00000001FF
