:08000300436C6F636B003A00CF
:0803A800021500360217000ADD
:100196001203711203447BFF7A0079037D017F010C
:1001A6001202CD750C02AB18AA177D017F0212034D
:1001B6000E7BFF7A0079097D037F021202CD750C52
:1001C60002AB16AA157D047F0212030E7BFF7A008E
:1001D60079097D067F021202CD750C02AB14AA13B3
:0901E6007D077F0212030E80BAAE
:03000B0002012EC1
:04012E00C0E0C0D09D
:10013200758A66758CFC0512E51270020511C3946E
:10014200E8E511940340487511007512000514E5A5
:100152001470020513943CE51394004032751300A9
:100162007514000516E51670020515943CE5159404
:1001720000401C7515007516000518E5187002057B
:0F018200179418E51794004006751700751800BC
:05019100D0D0D0E032E7
:10032B00D3EF9400EE9400400F7D027CEFDCFEDDFA
:08033B00FCEF1F70EB1E80E8CF
:010343002297
:06038500C2A58F80D2A783
:08038B007F027EEFDEFEDFFCC5
:010393002247
:0A039400C2A6120385C2A702038B64
:1002F000CFCDCFCECCCE12004D7C007D0A12004D6A
:04030000ED2430FFB9
:0A030400D2A6120385C2A702038BE4
:10035B00AE07BE0104ED148006BE0209ED243F4436
:06036B0080FF1203942242
:100371007F381203947F0C1203947F061203947F3B
:0403810001020394DE
:0A039E00AC0312035BAF040203047A
:0602CD008B088A09890A72
:1002D30012035BE4FDAB08AA09A90A8D82758300AA
:0C02E30012000EFF60061203040D80E9FB
:0102EF0022EC
:0C029A007F0AEA24FFFDE434FFFC7E0034
:0802A6008E0D8F0E8C0F8D10E0
:1002AE007F017E00E4FBEBC39510E50F6480F874CC
:0E02BE008098500AAC0DAD0E12003B0B80E88C
:0102CC00220F
:04030E008A0A8B0BC1
:1003120012035BAA0CEAD39400400D12029AAC0AB3
:08032200AD0B1202F01A80ED90
:01032A0022B0
:1001EF0012035BC3EA64809480400B7F2B120304DD
:1001FF008A1E8B1F800E7F2D120304C3E49BF51FF5
:10020F00E49AF51EAA1DEAD39400400D12029AAC8F
:09021F001EAD1F1202F01A80ED61
:0102280022B3
:040229008A228B2377
:10022D0012035BAA24EAD3940040297F1012029C8A
:10023D00AC22AD23CFCDCFCECCCE12004DEF540F8F
:10024D00FEC3940AEE5004243080022437FF1203BB
:04025D00041A80D12E
:01026100227A
:040262008A278B2834
:1002660012035BAA29EAD394004028EA24FFFDE49E
:1002760034FFFC7F027E001202A6AC27AD28CFCD4C
:10028600CFCECCCE12004DEF54012430FF12030422
:030296001A80D2F9
:010299002242
:100344005389F0438901C28DD28C758A66758CFC01
:07035400D2A9D2AFC2B92209
:030000000200A259
:0C00A200787FE4F6D8FD7581290200E9A2
:10000E00BB010CE58229F582E5833AF583E02250A7
:10001E0006E92582F8E622BBFE06E92582F8E222F1
:0D002E00E58229F582E5833AF583E493220B
:10003B00EF8DF0A4A8F0CF8CF0A428CE8DF0A42ED9
:02004B00FE2293
:10004D00BC000BBE0029EF8DF084FFADF022E4CC97
:10005D00F875F008EF2FFFEE33FEEC33FCEE9DEC60
:10006D00984005FCEE9DFE0FD5F0E9E4CEFD22EDA6
:10007D00F8F5F0EE8420D21CFEADF075F008EF2FF0
:10008D00FFED33FD4007985006D5F0F222C398FDE1
:05009D000FD5F0EA227E
:1000AE00020196E493A3F8E493A34003F68001F2D1
:1000BE0008DFF48029E493A3F85407240CC8C33353
:1000CE00C4540F4420C8834004F456800146F6DF22
:1000DE00E4800B01020408102040809003A8E47E07
:1000EE00019360BCA3FF543F30E509541FFEE49317
:1000FE00A360010ECF54C025E060A840B8E493A3DE
:10010E00FAE493A3F8E493A3C8C582C8CAC583CA08
:10011E00F0A3C8C582C8CAC583CADFE9DEE780BEC0
:0103B000004C
:00000001FF
