:100153001200F28F12EFFD7C007F0112008FE51277
:1001630060EE7F647E00120178E512FD7C007F0162
:0501730012008F80DB8B
:10019A00D3EF9400EE9400400F7D027CEFDCFEDD8D
:0801AA00FCEF1F70EB1E80E862
:0101B200222A
:0C01B3000A083F065B4F666D7D077F6FFA
:10008F00EF14B4080050549000A475F003A4C58376
:10009F0025F0C583730200BC0200C00200C4020039
:1000AF00C80200CC0200D40200DC0200E4D2A4801B
:1000BF000ED2A48012D2A48016D2A4801AC2A4D2C7
:1000CF00A3D2A28016C2A4D2A3C2A2800EC2A4C27F
:1000DF00A3D2A28006C2A4C2A3C2A274082DF8E6BE
:0300EF00F5802277
:1000F200E4F51320B1137F14FE12019A30B1FD7F93
:10010200147E0012019A75130120B0147F147E0030
:1001120012019A30B0FD7F147E0012019A7513020B
:1001220020B2147F147E0012019A30B2FD7F147E39
:100132000012019A75130320B3147F147E0012017A
:100142009A30B3FD7F147E0012019A751304AF1327
:01015200228A
:0501C000007FE3DFFEFB
:0101C5002217
:04017800AD07AC061D
:10017C00E4FBFAED25E0FFEC33FEC3EB9FEA9E5067
:0D018C000CB2A51201C00BBB00010A80E6F9
:010199002243
:03000000020003F8
:0C000300787FE4F6D8FD75811302004AF6
:10000F00020153E493A3F8E493A34003F68001F2B3
:10001F0008DFF48029E493A3F85407240CC8C333F2
:10002F00C4540F4420C8834004F456800146F6DFC1
:10003F00E4800B01020408102040809001B3E47E9D
:10004F00019360BCA3FF543F30E509541FFEE493B6
:10005F00A360010ECF54C025E060A840B8E493A37D
:10006F00FAE493A3F8E493A3C8C582C8CAC583CAA8
:10007F00F0A3C8C582C8CAC583CADFE9DEE780BE60
:0101BF00003F
:00000001FF
