:0301F300012500E3
:1001C700120247C2901200038F23E523B4010505ED
:1001D70025532503E5250475F005A4F522E5252417
:0C01E70001FDE433FC7F0112027480D99A
:03000B0002000EE2
:10000E00C0E0C0F0C083C082C0D075D000C000C0B8
:0D001E0001C002C003C004C005C006C00739
:10002B00758AA4758CFF0524E52475F0148485F07E
:10003B0024E524C395225006D290C2A08004C2901E
:10004B00D2A0051FE51F7002051ED394C8E51E94B0
:10005B00004009751E00751F0012018E0521E52158
:10006B0070020520D3940AE5209400400975200006
:06007B00752100120213C2
:10008100D007D006D005D004D003D002D001D000D3
:0B009100D0D0D082D083D0F0D0E0327D
:10022E00D3EF9400EE9400400F7D027CEFDCFEDDF8
:08023E00FCEF1F70EB1E80E8CD
:010246002295
:1001F6000915000A0A0A0A0A0A0A0A0C093F065BD6
:0C0206004F666D7D077F6F00400108010E
:09027400AE0574152FF8A6062250
:10012800E4F580EF14B40800505490014075F003D2
:10013800A4C58325F0C5837302015802015C02013E
:100148006002016402016802017002017802018004
:10015800D2A4800ED2A48012D2A48016D2A4801A6F
:10016800C2A4D2A3D2A28016C2A4D2A3C2A2800ED5
:10017800C2A4C2A3D2A28006C2A4C2A3C2A2740906
:060188002DF8E6F58022CF
:1002130074152508F8E6FD7C00AF081201280508CF
:0A022300E508C394094003750801C3
:01022D0022AE
:05000300AF28E4F52820
:0100080022D5
:10025E00E4FF20B1010F20B0027F0220B2027F0323
:05026E0020B3027F0433
:010273002268
:10018E0085262712025E8F26E5277008E526B40124
:10019E0003752801E527B40207E5267003752802CA
:1001AE00E527B40307E5267003752803E527B40495
:0801BE0007E526700375280413
:0101C6002216
:100247005389F0438901C28DD28C758A66758CFCFF
:07025700D2A9D2AFC2B92207
:0300000002009C5F
:0C009C00787FE4F6D8FD7581280200E3AF
:1000A8000201C7E493A3F8E493A34003F68001F2A6
:1000B80008DFF48029E493A3F85407240CC8C33359
:1000C800C4540F4420C8834004F456800146F6DF28
:1000D800E4800B01020408102040809001F3E47EC4
:1000E800019360BCA3FF543F30E509541FFEE4931D
:1000F800A360010ECF54C025E060A840B8E493A3E4
:10010800FAE493A3F8E493A3C8C582C8CAC583CA0E
:10011800F0A3C8C582C8CAC583CADFE9DEE780BEC6
:0102120000EB
:00000001FF
